{
  "contractName": "TimeLimitedOwnership",
  "abi": [
    {
      "inputs": [],
      "stateMutability": "nonpayable",
      "type": "constructor"
    },
    {
      "anonymous": false,
      "inputs": [
        {
          "indexed": true,
          "internalType": "address",
          "name": "owner",
          "type": "address"
        },
        {
          "indexed": true,
          "internalType": "address",
          "name": "approved",
          "type": "address"
        },
        {
          "indexed": true,
          "internalType": "uint256",
          "name": "tokenId",
          "type": "uint256"
        }
      ],
      "name": "Approval",
      "type": "event"
    },
    {
      "anonymous": false,
      "inputs": [
        {
          "indexed": true,
          "internalType": "address",
          "name": "owner",
          "type": "address"
        },
        {
          "indexed": true,
          "internalType": "address",
          "name": "operator",
          "type": "address"
        },
        {
          "indexed": false,
          "internalType": "bool",
          "name": "approved",
          "type": "bool"
        }
      ],
      "name": "ApprovalForAll",
      "type": "event"
    },
    {
      "anonymous": false,
      "inputs": [
        {
          "indexed": false,
          "internalType": "uint256",
          "name": "tokenId",
          "type": "uint256"
        },
        {
          "indexed": false,
          "internalType": "address",
          "name": "renter",
          "type": "address"
        }
      ],
      "name": "LeaseActivated",
      "type": "event"
    },
    {
      "anonymous": false,
      "inputs": [
        {
          "indexed": true,
          "internalType": "address",
          "name": "previousOwner",
          "type": "address"
        },
        {
          "indexed": true,
          "internalType": "address",
          "name": "newOwner",
          "type": "address"
        }
      ],
      "name": "OwnershipTransferred",
      "type": "event"
    },
    {
      "anonymous": false,
      "inputs": [
        {
          "indexed": true,
          "internalType": "address",
          "name": "from",
          "type": "address"
        },
        {
          "indexed": true,
          "internalType": "address",
          "name": "to",
          "type": "address"
        },
        {
          "indexed": true,
          "internalType": "uint256",
          "name": "tokenId",
          "type": "uint256"
        }
      ],
      "name": "Transfer",
      "type": "event"
    },
    {
      "inputs": [
        {
          "internalType": "address",
          "name": "to",
          "type": "address"
        },
        {
          "internalType": "uint256",
          "name": "tokenId",
          "type": "uint256"
        }
      ],
      "name": "approve",
      "outputs": [],
      "stateMutability": "nonpayable",
      "type": "function"
    },
    {
      "inputs": [
        {
          "internalType": "address",
          "name": "owner",
          "type": "address"
        }
      ],
      "name": "balanceOf",
      "outputs": [
        {
          "internalType": "uint256",
          "name": "",
          "type": "uint256"
        }
      ],
      "stateMutability": "view",
      "type": "function",
      "constant": true
    },
    {
      "inputs": [
        {
          "internalType": "uint256",
          "name": "tokenId",
          "type": "uint256"
        }
      ],
      "name": "getApproved",
      "outputs": [
        {
          "internalType": "address",
          "name": "",
          "type": "address"
        }
      ],
      "stateMutability": "view",
      "type": "function",
      "constant": true
    },
    {
      "inputs": [
        {
          "internalType": "address",
          "name": "owner",
          "type": "address"
        },
        {
          "internalType": "address",
          "name": "operator",
          "type": "address"
        }
      ],
      "name": "isApprovedForAll",
      "outputs": [
        {
          "internalType": "bool",
          "name": "",
          "type": "bool"
        }
      ],
      "stateMutability": "view",
      "type": "function",
      "constant": true
    },
    {
      "inputs": [
        {
          "internalType": "uint256",
          "name": "",
          "type": "uint256"
        }
      ],
      "name": "leasePeriods",
      "outputs": [
        {
          "internalType": "uint256",
          "name": "startTime",
          "type": "uint256"
        },
        {
          "internalType": "uint256",
          "name": "endTime",
          "type": "uint256"
        },
        {
          "internalType": "uint256",
          "name": "pricePerDay",
          "type": "uint256"
        },
        {
          "internalType": "address",
          "name": "renter",
          "type": "address"
        }
      ],
      "stateMutability": "view",
      "type": "function",
      "constant": true
    },
    {
      "inputs": [],
      "name": "name",
      "outputs": [
        {
          "internalType": "string",
          "name": "",
          "type": "string"
        }
      ],
      "stateMutability": "view",
      "type": "function",
      "constant": true
    },
    {
      "inputs": [
        {
          "internalType": "uint256",
          "name": "",
          "type": "uint256"
        }
      ],
      "name": "originalOwner",
      "outputs": [
        {
          "internalType": "address",
          "name": "",
          "type": "address"
        }
      ],
      "stateMutability": "view",
      "type": "function",
      "constant": true
    },
    {
      "inputs": [],
      "name": "owner",
      "outputs": [
        {
          "internalType": "address",
          "name": "",
          "type": "address"
        }
      ],
      "stateMutability": "view",
      "type": "function",
      "constant": true
    },
    {
      "inputs": [
        {
          "internalType": "uint256",
          "name": "tokenId",
          "type": "uint256"
        }
      ],
      "name": "ownerOf",
      "outputs": [
        {
          "internalType": "address",
          "name": "",
          "type": "address"
        }
      ],
      "stateMutability": "view",
      "type": "function",
      "constant": true
    },
    {
      "inputs": [],
      "name": "renounceOwnership",
      "outputs": [],
      "stateMutability": "nonpayable",
      "type": "function"
    },
    {
      "inputs": [
        {
          "internalType": "address",
          "name": "from",
          "type": "address"
        },
        {
          "internalType": "address",
          "name": "to",
          "type": "address"
        },
        {
          "internalType": "uint256",
          "name": "tokenId",
          "type": "uint256"
        }
      ],
      "name": "safeTransferFrom",
      "outputs": [],
      "stateMutability": "nonpayable",
      "type": "function"
    },
    {
      "inputs": [
        {
          "internalType": "address",
          "name": "from",
          "type": "address"
        },
        {
          "internalType": "address",
          "name": "to",
          "type": "address"
        },
        {
          "internalType": "uint256",
          "name": "tokenId",
          "type": "uint256"
        },
        {
          "internalType": "bytes",
          "name": "data",
          "type": "bytes"
        }
      ],
      "name": "safeTransferFrom",
      "outputs": [],
      "stateMutability": "nonpayable",
      "type": "function"
    },
    {
      "inputs": [
        {
          "internalType": "address",
          "name": "operator",
          "type": "address"
        },
        {
          "internalType": "bool",
          "name": "approved",
          "type": "bool"
        }
      ],
      "name": "setApprovalForAll",
      "outputs": [],
      "stateMutability": "nonpayable",
      "type": "function"
    },
    {
      "inputs": [
        {
          "internalType": "bytes4",
          "name": "interfaceId",
          "type": "bytes4"
        }
      ],
      "name": "supportsInterface",
      "outputs": [
        {
          "internalType": "bool",
          "name": "",
          "type": "bool"
        }
      ],
      "stateMutability": "view",
      "type": "function",
      "constant": true
    },
    {
      "inputs": [],
      "name": "symbol",
      "outputs": [
        {
          "internalType": "string",
          "name": "",
          "type": "string"
        }
      ],
      "stateMutability": "view",
      "type": "function",
      "constant": true
    },
    {
      "inputs": [
        {
          "internalType": "uint256",
          "name": "index",
          "type": "uint256"
        }
      ],
      "name": "tokenByIndex",
      "outputs": [
        {
          "internalType": "uint256",
          "name": "",
          "type": "uint256"
        }
      ],
      "stateMutability": "view",
      "type": "function",
      "constant": true
    },
    {
      "inputs": [
        {
          "internalType": "address",
          "name": "owner",
          "type": "address"
        },
        {
          "internalType": "uint256",
          "name": "index",
          "type": "uint256"
        }
      ],
      "name": "tokenOfOwnerByIndex",
      "outputs": [
        {
          "internalType": "uint256",
          "name": "",
          "type": "uint256"
        }
      ],
      "stateMutability": "view",
      "type": "function",
      "constant": true
    },
    {
      "inputs": [],
      "name": "totalSupply",
      "outputs": [
        {
          "internalType": "uint256",
          "name": "",
          "type": "uint256"
        }
      ],
      "stateMutability": "view",
      "type": "function",
      "constant": true
    },
    {
      "inputs": [
        {
          "internalType": "address",
          "name": "from",
          "type": "address"
        },
        {
          "internalType": "address",
          "name": "to",
          "type": "address"
        },
        {
          "internalType": "uint256",
          "name": "tokenId",
          "type": "uint256"
        }
      ],
      "name": "transferFrom",
      "outputs": [],
      "stateMutability": "nonpayable",
      "type": "function"
    },
    {
      "inputs": [
        {
          "internalType": "address",
          "name": "newOwner",
          "type": "address"
        }
      ],
      "name": "transferOwnership",
      "outputs": [],
      "stateMutability": "nonpayable",
      "type": "function"
    },
    {
      "inputs": [
        {
          "internalType": "address",
          "name": "to",
          "type": "address"
        },
        {
          "internalType": "uint256",
          "name": "tokenId",
          "type": "uint256"
        },
        {
          "internalType": "string",
          "name": "tokenURI",
          "type": "string"
        },
        {
          "internalType": "uint256",
          "name": "pricePerDay",
          "type": "uint256"
        }
      ],
      "name": "mint",
      "outputs": [],
      "stateMutability": "nonpayable",
      "type": "function"
    },
    {
      "inputs": [
        {
          "internalType": "uint256",
          "name": "tokenId",
          "type": "uint256"
        }
      ],
      "name": "getOriginalOwner",
      "outputs": [
        {
          "internalType": "address",
          "name": "",
          "type": "address"
        }
      ],
      "stateMutability": "view",
      "type": "function",
      "constant": true
    },
    {
      "inputs": [
        {
          "internalType": "uint256",
          "name": "tokenId",
          "type": "uint256"
        }
      ],
      "name": "tokenURI",
      "outputs": [
        {
          "internalType": "string",
          "name": "",
          "type": "string"
        }
      ],
      "stateMutability": "view",
      "type": "function",
      "constant": true
    },
    {
      "inputs": [],
      "name": "getAllTokens",
      "outputs": [
        {
          "internalType": "uint256[]",
          "name": "",
          "type": "uint256[]"
        }
      ],
      "stateMutability": "view",
      "type": "function",
      "constant": true
    },
    {
      "inputs": [
        {
          "internalType": "uint256",
          "name": "tokenId",
          "type": "uint256"
        },
        {
          "internalType": "uint256",
          "name": "_startTime",
          "type": "uint256"
        },
        {
          "internalType": "uint256",
          "name": "_endTime",
          "type": "uint256"
        }
      ],
      "name": "rentToken",
      "outputs": [],
      "stateMutability": "payable",
      "type": "function",
      "payable": true
    },
    {
      "inputs": [
        {
          "internalType": "uint256",
          "name": "tokenId",
          "type": "uint256"
        }
      ],
      "name": "activateLease",
      "outputs": [],
      "stateMutability": "nonpayable",
      "type": "function"
    },
    {
      "inputs": [
        {
          "internalType": "address",
          "name": "to",
          "type": "address"
        },
        {
          "internalType": "uint256",
          "name": "tokenId",
          "type": "uint256"
        }
      ],
      "name": "transferDuringLeasePeriod",
      "outputs": [],
      "stateMutability": "nonpayable",
      "type": "function"
    },
    {
      "inputs": [
        {
          "internalType": "uint256",
          "name": "tokenId",
          "type": "uint256"
        },
        {
          "internalType": "uint256",
          "name": "pricePerDay",
          "type": "uint256"
        }
      ],
      "name": "setRentPricePerDay",
      "outputs": [],
      "stateMutability": "nonpayable",
      "type": "function"
    },
    {
      "inputs": [
        {
          "internalType": "uint256",
          "name": "tokenId",
          "type": "uint256"
        }
      ],
      "name": "reclaimToken",
      "outputs": [],
      "stateMutability": "nonpayable",
      "type": "function"
    },
    {
      "inputs": [
        {
          "internalType": "uint256",
          "name": "tokenId",
          "type": "uint256"
        },
        {
          "internalType": "uint256",
          "name": "newEndTime",
          "type": "uint256"
        }
      ],
      "name": "extendLease",
      "outputs": [],
      "stateMutability": "payable",
      "type": "function",
      "payable": true
    }
  ],
  "bytecode": "0x60806040523480156200001157600080fd5b506040518060400160405280601481526020017f54696d654c696d697465644f776e65727368697000000000000000000000000081525060405180604001604052806003815260200162544c4f60e81b8152508160009081620000759190620001a2565b506001620000848282620001a2565b505050620000a16200009b620000a760201b60201c565b620000ab565b6200026e565b3390565b600a80546001600160a01b038381166001600160a01b0319831681179093556040519116919082907f8be0079c531659141344cd1fd0a4f28419497f9722a3daafe3b4186f6b6457e090600090a35050565b634e487b7160e01b600052604160045260246000fd5b600181811c908216806200012857607f821691505b6020821081036200014957634e487b7160e01b600052602260045260246000fd5b50919050565b601f8211156200019d57600081815260208120601f850160051c81016020861015620001785750805b601f850160051c820191505b81811015620001995782815560010162000184565b5050505b505050565b81516001600160401b03811115620001be57620001be620000fd565b620001d681620001cf845462000113565b846200014f565b602080601f8311600181146200020e5760008415620001f55750858301515b600019600386901b1c1916600185901b17855562000199565b600085815260208120601f198616915b828110156200023f578886015182559484019460019091019084016200021e565b50858210156200025e5787850151600019600388901b60f8161c191681555b5050505050600190811b01905550565b61295d806200027e6000396000f3fe6080604052600436106101cd5760003560e01c8063508061a2116100f757806395d89b4111610095578063c87b56dd11610064578063c87b56dd14610592578063e985e9c5146105b2578063f2fde38b146105fb578063faee5bee1461061b57600080fd5b806395d89b41146104c9578063a22cb465146104de578063b88d4fde146104fe578063c0666f101461051e57600080fd5b8063715018a6116100d1578063715018a61461046357806376ab4ffc14610478578063806d4a72146104985780638da5cb5b146104ab57600080fd5b8063508061a2146104035780636352211e1461042357806370a082311461044357600080fd5b80631c2098dc1161016f57806340bb154d1161013e57806340bb154d1461035757806342842e0e1461038d5780634eeba5be146103ad5780634f6ccce7146103e357600080fd5b80631c2098dc146102e257806323b872dd146102f55780632a5c792a146103155780632f745c591461033757600080fd5b8063081812fc116101ab578063081812fc1461024b57806308a8d7aa14610283578063095ea7b3146102a357806318160ddd146102c357600080fd5b806301ffc9a7146101d257806306fdde031461020757806307c5f7fd14610229575b600080fd5b3480156101de57600080fd5b506101f26101ed366004612253565b61063b565b60405190151581526020015b60405180910390f35b34801561021357600080fd5b5061021c610666565b6040516101fe91906122bd565b34801561023557600080fd5b506102496102443660046122d0565b6106f8565b005b34801561025757600080fd5b5061026b6102663660046122d0565b61093b565b6040516001600160a01b0390911681526020016101fe565b34801561028f57600080fd5b5061024961029e366004612391565b610962565b3480156102af57600080fd5b506102496102be366004612404565b610a45565b3480156102cf57600080fd5b506008545b6040519081526020016101fe565b6102496102f036600461242e565b610b5a565b34801561030157600080fd5b5061024961031036600461245a565b610e9e565b34801561032157600080fd5b5061032a610ecf565b6040516101fe9190612496565b34801561034357600080fd5b506102d4610352366004612404565b610f6f565b34801561036357600080fd5b5061026b6103723660046122d0565b600d602052600090815260409020546001600160a01b031681565b34801561039957600080fd5b506102496103a836600461245a565b611005565b3480156103b957600080fd5b5061026b6103c83660046122d0565b6000908152600d60205260409020546001600160a01b031690565b3480156103ef57600080fd5b506102d46103fe3660046122d0565b611020565b34801561040f57600080fd5b5061024961041e3660046122d0565b6110b3565b34801561042f57600080fd5b5061026b61043e3660046122d0565b611149565b34801561044f57600080fd5b506102d461045e3660046124da565b6111a9565b34801561046f57600080fd5b5061024961122f565b34801561048457600080fd5b50610249610493366004612404565b611243565b6102496104a63660046124f5565b611357565b3480156104b757600080fd5b50600a546001600160a01b031661026b565b3480156104d557600080fd5b5061021c611557565b3480156104ea57600080fd5b506102496104f9366004612517565b611566565b34801561050a57600080fd5b50610249610519366004612553565b611571565b34801561052a57600080fd5b506105696105393660046122d0565b600b602052600090815260409020805460018201546002830154600390930154919290916001600160a01b031684565b604080519485526020850193909352918301526001600160a01b031660608201526080016101fe565b34801561059e57600080fd5b5061021c6105ad3660046122d0565b6115a9565b3480156105be57600080fd5b506101f26105cd3660046125cf565b6001600160a01b03918216600090815260056020908152604080832093909416825291909152205460ff1690565b34801561060757600080fd5b506102496106163660046124da565b6116b6565b34801561062757600080fd5b506102496106363660046124f5565b61172f565b60006001600160e01b0319821663780e9d6360e01b14806106605750610660826117b3565b92915050565b60606000805461067590612602565b80601f01602080910402602001604051908101604052809291908181526020018280546106a190612602565b80156106ee5780601f106106c3576101008083540402835291602001916106ee565b820191906000526020600020905b8154815290600101906020018083116106d157829003601f168201915b5050505050905090565b6000818152600b6020908152604080832081516080810183528154808252600183015494820194909452600282015492810192909252600301546001600160a01b0316606082015291036107a15760405162461bcd60e51b815260206004820152602560248201527f4e6f206c6561736520686173206265656e2073657420666f722074686973207460448201526437b5b2b71760d91b60648201526084015b60405180910390fd5b80514210156107fc5760405162461bcd60e51b815260206004820152602160248201527f4c6561736520706572696f6420686173206e6f742073746172746564207965746044820152601760f91b6064820152608401610798565b8060200151421061084f5760405162461bcd60e51b815260206004820152601f60248201527f4c6561736520706572696f642068617320616c726561647920656e6465642e006044820152606401610798565b600061085a83611149565b6000848152600d60205260409020549091506001600160a01b031661087e84611149565b6001600160a01b0316146108e05760405162461bcd60e51b815260206004820152602360248201527f546f6b656e2068617320616c7265616479206265656e207472616e736665727260448201526232b21760e91b6064820152608401610798565b6108ef81836060015185611803565b6060820151604080518581526001600160a01b0390921660208301527f36b0bb8dd1e9aefd3722d56d3ee01102efbf2755ea328dcff16653b72b4ae688910160405180910390a1505050565b600061094682611974565b506000908152600460205260409020546001600160a01b031690565b61096b836119c4565b156109b05760405162461bcd60e51b81526020600482015260156024820152742a37b5b2b71030b63932b0b23c9032bc34b9ba399760591b6044820152606401610798565b6109ba84846119e1565b6109c48383611b5c565b6000838152600d6020908152604080832080546001600160a01b03199081166001600160a01b03998a1617909155815160808101835284815280840185815281840196875260608201868152988652600b90945291909320905181559051600182015591516002830155925160039091018054909316931692909217905550565b6000610a5082611149565b9050806001600160a01b0316836001600160a01b031603610abd5760405162461bcd60e51b815260206004820152602160248201527f4552433732313a20617070726f76616c20746f2063757272656e74206f776e656044820152603960f91b6064820152608401610798565b336001600160a01b0382161480610ad95750610ad981336105cd565b610b4b5760405162461bcd60e51b815260206004820152603d60248201527f4552433732313a20617070726f76652063616c6c6572206973206e6f7420746f60448201527f6b656e206f776e6572206f7220617070726f76656420666f7220616c6c0000006064820152608401610798565b610b558383611bde565b505050565b33610b6484611149565b6001600160a01b031603610bcb5760405162461bcd60e51b815260206004820152602860248201527f596f752061726520616c726561647920746865206f776e6572206f662074686960448201526739903a37b5b2b71760c11b6064820152608401610798565b808210610c265760405162461bcd60e51b815260206004820152602360248201527f53746172742074696d65206d757374206265206265666f726520656e6420746960448201526236b29760e91b6064820152608401610798565b81421115610c765760405162461bcd60e51b815260206004820152601a60248201527f53746172742074696d6520697320696e2074686520706173742e0000000000006044820152606401610798565b6000838152600b60205260409020600101541580610ca457506000838152600b602052604090206001015442115b610cff5760405162461bcd60e51b815260206004820152602660248201527f546f6b656e206973207374696c6c2072656e74656420627920736f6d656f6e656044820152651032b639b29760d11b6064820152608401610798565b600062015180610d0f8484612652565b610d199190612665565b905060008111610d7f5760405162461bcd60e51b815260206004820152602b60248201527f5468652072656e74616c20706572696f64206d757374206265206174206c656160448201526a39ba1037b732903230bc9760a91b6064820152608401610798565b6000848152600b6020526040812060020154610d9b9083612687565b905080341015610ded5760405162461bcd60e51b815260206004820152601e60248201527f496e73756666696369656e74207061796d656e7420666f722072656e742e00006044820152606401610798565b6040805160808101825285815260208082018681526000898152600b80845285822060028101805487890190815233606089019081528e8652938752965182559351600182015594519092559051600390930180546001600160a01b039485166001600160a01b0319909116179055600d909152828120549251929091169182913480156108fc02929091818181858888f19350505050158015610e95573d6000803e3d6000fd5b50505050505050565b610ea83382611c4c565b610ec45760405162461bcd60e51b81526004016107989061269e565b610b55838383611803565b60606000610edc60085490565b905060008167ffffffffffffffff811115610ef957610ef9612305565b604051908082528060200260200182016040528015610f22578160200160208202803683370190505b50905060005b82811015610f6857610f3981611020565b828281518110610f4b57610f4b6126eb565b602090810291909101015280610f6081612701565b915050610f28565b5092915050565b6000610f7a836111a9565b8210610fdc5760405162461bcd60e51b815260206004820152602b60248201527f455243373231456e756d657261626c653a206f776e657220696e646578206f7560448201526a74206f6620626f756e647360a81b6064820152608401610798565b506001600160a01b03919091166000908152600660209081526040808320938352929052205490565b610b5583838360405180602001604052806000815250611571565b600061102b60085490565b821061108e5760405162461bcd60e51b815260206004820152602c60248201527f455243373231456e756d657261626c653a20676c6f62616c20696e646578206f60448201526b7574206f6620626f756e647360a01b6064820152608401610798565b600882815481106110a1576110a16126eb565b90600052602060002001549050919050565b6000818152600b602052604090206001015442116111135760405162461bcd60e51b815260206004820152601f60248201527f4c6561736520706572696f6420686173206e6f7420656e646564207965742e006044820152606401610798565b600061111e82611149565b6000838152600d60205260409020549091506111459082906001600160a01b031684611803565b5050565b6000818152600260205260408120546001600160a01b0316806106605760405162461bcd60e51b8152602060048201526018602482015277115490cdcc8c4e881a5b9d985b1a59081d1bdad95b88125160421b6044820152606401610798565b60006001600160a01b0382166112135760405162461bcd60e51b815260206004820152602960248201527f4552433732313a2061646472657373207a65726f206973206e6f7420612076616044820152683634b21037bbb732b960b91b6064820152608401610798565b506001600160a01b031660009081526003602052604090205490565b611237611ccb565b6112416000611d25565b565b3361124d82611149565b6001600160a01b0316146112bb5760405162461bcd60e51b815260206004820152602f60248201527f4f6e6c79207468652063757272656e742074656e616e742063616e207472616e60448201526e39b332b9103a3432903a37b5b2b71760891b6064820152608401610798565b6000818152600b6020526040902060010154421061131b5760405162461bcd60e51b815260206004820152601760248201527f4c6561736520706572696f642068617320656e6465642e0000000000000000006044820152606401610798565b611326338383611803565b6000908152600b6020526040902060030180546001600160a01b0319166001600160a01b0392909216919091179055565b3361136183611149565b6001600160a01b0316146113cd5760405162461bcd60e51b815260206004820152602d60248201527f4f6e6c79207468652063757272656e742074656e616e742063616e206578746560448201526c3732103a3432903632b0b9b29760991b6064820152608401610798565b6000828152600b6020526040902060010154811161144b5760405162461bcd60e51b815260206004820152603560248201527f4e657720656e642074696d65206d757374206265206c61746572207468616e206044820152743a34329031bab93932b73a1032b732103a34b6b29760591b6064820152608401610798565b6000828152600b6020526040812060010154620151809061146c9084612652565b6114769190612665565b6000848152600b6020526040812060020154919250906114969083612687565b9050803410156114fa5760405162461bcd60e51b815260206004820152602960248201527f496e73756666696369656e74207061796d656e7420666f7220657874656e64696044820152683733903632b0b9b29760b91b6064820152608401610798565b6000848152600b6020526040812060010184905561151785611149565b6040519091506001600160a01b038216903480156108fc02916000818181858888f1935050505015801561154f573d6000803e3d6000fd5b505050505050565b60606001805461067590612602565b611145338383611d77565b61157b3383611c4c565b6115975760405162461bcd60e51b81526004016107989061269e565b6115a384848484611e45565b50505050565b60606115b4826119c4565b6116185760405162461bcd60e51b815260206004820152602f60248201527f4552433732314d657461646174613a2055524920717565727920666f72206e6f60448201526e3732bc34b9ba32b73a103a37b5b2b760891b6064820152608401610798565b6000828152600c60205260409020805461163190612602565b80601f016020809104026020016040519081016040528092919081815260200182805461165d90612602565b80156116aa5780601f1061167f576101008083540402835291602001916116aa565b820191906000526020600020905b81548152906001019060200180831161168d57829003601f168201915b50505050509050919050565b6116be611ccb565b6001600160a01b0381166117235760405162461bcd60e51b815260206004820152602660248201527f4f776e61626c653a206e6577206f776e657220697320746865207a65726f206160448201526564647265737360d01b6064820152608401610798565b61172c81611d25565b50565b3361173983611149565b6001600160a01b03161461179e5760405162461bcd60e51b815260206004820152602660248201527f4f6e6c7920746865206f776e65722063616e20736574207468652072656e7420604482015265383934b1b29760d11b6064820152608401610798565b6000918252600b602052604090912060020155565b60006001600160e01b031982166380ac58cd60e01b14806117e457506001600160e01b03198216635b5e139f60e01b145b8061066057506301ffc9a760e01b6001600160e01b0319831614610660565b826001600160a01b031661181682611149565b6001600160a01b03161461183c5760405162461bcd60e51b81526004016107989061271a565b6001600160a01b03821661189e5760405162461bcd60e51b8152602060048201526024808201527f4552433732313a207472616e7366657220746f20746865207a65726f206164646044820152637265737360e01b6064820152608401610798565b6118ab8383836001611e78565b826001600160a01b03166118be82611149565b6001600160a01b0316146118e45760405162461bcd60e51b81526004016107989061271a565b600081815260046020908152604080832080546001600160a01b03199081169091556001600160a01b0387811680865260038552838620805460001901905590871680865283862080546001019055868652600290945282852080549092168417909155905184937fddf252ad1be2c89b69c2b068fc378daa952ba7f163c4a11628f55a4df523b3ef91a4505050565b61197d816119c4565b61172c5760405162461bcd60e51b8152602060048201526018602482015277115490cdcc8c4e881a5b9d985b1a59081d1bdad95b88125160421b6044820152606401610798565b6000908152600260205260409020546001600160a01b0316151590565b6001600160a01b038216611a375760405162461bcd60e51b815260206004820181905260248201527f4552433732313a206d696e7420746f20746865207a65726f20616464726573736044820152606401610798565b611a40816119c4565b15611a8d5760405162461bcd60e51b815260206004820152601c60248201527f4552433732313a20746f6b656e20616c7265616479206d696e746564000000006044820152606401610798565b611a9b600083836001611e78565b611aa4816119c4565b15611af15760405162461bcd60e51b815260206004820152601c60248201527f4552433732313a20746f6b656e20616c7265616479206d696e746564000000006044820152606401610798565b6001600160a01b038216600081815260036020908152604080832080546001019055848352600290915280822080546001600160a01b0319168417905551839291907fddf252ad1be2c89b69c2b068fc378daa952ba7f163c4a11628f55a4df523b3ef908290a45050565b611b65826119c4565b611bc65760405162461bcd60e51b815260206004820152602c60248201527f4552433732314d657461646174613a2055524920736574206f66206e6f6e657860448201526b34b9ba32b73a103a37b5b2b760a11b6064820152608401610798565b6000828152600c60205260409020610b5582826127a5565b600081815260046020526040902080546001600160a01b0319166001600160a01b0384169081179091558190611c1382611149565b6001600160a01b03167f8c5be1e5ebec7d5bd14f71427d1e84f3dd0314c0f7b2291e5b200ac8c7c3b92560405160405180910390a45050565b600080611c5883611149565b9050806001600160a01b0316846001600160a01b03161480611c9f57506001600160a01b0380821660009081526005602090815260408083209388168352929052205460ff165b80611cc35750836001600160a01b0316611cb88461093b565b6001600160a01b0316145b949350505050565b600a546001600160a01b031633146112415760405162461bcd60e51b815260206004820181905260248201527f4f776e61626c653a2063616c6c6572206973206e6f7420746865206f776e65726044820152606401610798565b600a80546001600160a01b038381166001600160a01b0319831681179093556040519116919082907f8be0079c531659141344cd1fd0a4f28419497f9722a3daafe3b4186f6b6457e090600090a35050565b816001600160a01b0316836001600160a01b031603611dd85760405162461bcd60e51b815260206004820152601960248201527f4552433732313a20617070726f766520746f2063616c6c6572000000000000006044820152606401610798565b6001600160a01b03838116600081815260056020908152604080832094871680845294825291829020805460ff191686151590811790915591519182527f17307eab39ab6107e8899845ad3d59bd9653f200f220920489ca2b5937696c31910160405180910390a3505050565b611e50848484611803565b611e5c84848484611fac565b6115a35760405162461bcd60e51b815260040161079890612865565b6001811115611ee75760405162461bcd60e51b815260206004820152603560248201527f455243373231456e756d657261626c653a20636f6e7365637574697665207472604482015274185b9cd9995c9cc81b9bdd081cdd5c1c1bdc9d1959605a1b6064820152608401610798565b816001600160a01b038516611f4357611f3e81600880546000838152600960205260408120829055600182018355919091527ff3f7a9fe364faab93b216da50a3214154f22a0a2b415b23a84c8169e8b636ee30155565b611f66565b836001600160a01b0316856001600160a01b031614611f6657611f6685826120ad565b6001600160a01b038416611f8257611f7d8161214a565b611fa5565b846001600160a01b0316846001600160a01b031614611fa557611fa584826121f9565b5050505050565b60006001600160a01b0384163b156120a257604051630a85bd0160e11b81526001600160a01b0385169063150b7a0290611ff09033908990889088906004016128b7565b6020604051808303816000875af192505050801561202b575060408051601f3d908101601f19168201909252612028918101906128f4565b60015b612088573d808015612059576040519150601f19603f3d011682016040523d82523d6000602084013e61205e565b606091505b5080516000036120805760405162461bcd60e51b815260040161079890612865565b805181602001fd5b6001600160e01b031916630a85bd0160e11b149050611cc3565b506001949350505050565b600060016120ba846111a9565b6120c49190612652565b600083815260076020526040902054909150808214612117576001600160a01b03841660009081526006602090815260408083208584528252808320548484528184208190558352600790915290208190555b5060009182526007602090815260408084208490556001600160a01b039094168352600681528383209183525290812055565b60085460009061215c90600190612652565b60008381526009602052604081205460088054939450909284908110612184576121846126eb565b9060005260206000200154905080600883815481106121a5576121a56126eb565b60009182526020808320909101929092558281526009909152604080822084905585825281205560088054806121dd576121dd612911565b6001900381819060005260206000200160009055905550505050565b6000612204836111a9565b6001600160a01b039093166000908152600660209081526040808320868452825280832085905593825260079052919091209190915550565b6001600160e01b03198116811461172c57600080fd5b60006020828403121561226557600080fd5b81356122708161223d565b9392505050565b6000815180845260005b8181101561229d57602081850181015186830182015201612281565b506000602082860101526020601f19601f83011685010191505092915050565b6020815260006122706020830184612277565b6000602082840312156122e257600080fd5b5035919050565b80356001600160a01b038116811461230057600080fd5b919050565b634e487b7160e01b600052604160045260246000fd5b600067ffffffffffffffff8084111561233657612336612305565b604051601f8501601f19908116603f0116810190828211818310171561235e5761235e612305565b8160405280935085815286868601111561237757600080fd5b858560208301376000602087830101525050509392505050565b600080600080608085870312156123a757600080fd5b6123b0856122e9565b935060208501359250604085013567ffffffffffffffff8111156123d357600080fd5b8501601f810187136123e457600080fd5b6123f38782356020840161231b565b949793965093946060013593505050565b6000806040838503121561241757600080fd5b612420836122e9565b946020939093013593505050565b60008060006060848603121561244357600080fd5b505081359360208301359350604090920135919050565b60008060006060848603121561246f57600080fd5b612478846122e9565b9250612486602085016122e9565b9150604084013590509250925092565b6020808252825182820181905260009190848201906040850190845b818110156124ce578351835292840192918401916001016124b2565b50909695505050505050565b6000602082840312156124ec57600080fd5b612270826122e9565b6000806040838503121561250857600080fd5b50508035926020909101359150565b6000806040838503121561252a57600080fd5b612533836122e9565b91506020830135801515811461254857600080fd5b809150509250929050565b6000806000806080858703121561256957600080fd5b612572856122e9565b9350612580602086016122e9565b925060408501359150606085013567ffffffffffffffff8111156125a357600080fd5b8501601f810187136125b457600080fd5b6125c38782356020840161231b565b91505092959194509250565b600080604083850312156125e257600080fd5b6125eb836122e9565b91506125f9602084016122e9565b90509250929050565b600181811c9082168061261657607f821691505b60208210810361263657634e487b7160e01b600052602260045260246000fd5b50919050565b634e487b7160e01b600052601160045260246000fd5b818103818111156106605761066061263c565b60008261268257634e487b7160e01b600052601260045260246000fd5b500490565b80820281158282048414176106605761066061263c565b6020808252602d908201527f4552433732313a2063616c6c6572206973206e6f7420746f6b656e206f776e6560408201526c1c881bdc88185c1c1c9bdd9959609a1b606082015260800190565b634e487b7160e01b600052603260045260246000fd5b6000600182016127135761271361263c565b5060010190565b60208082526025908201527f4552433732313a207472616e736665722066726f6d20696e636f72726563742060408201526437bbb732b960d91b606082015260800190565b601f821115610b5557600081815260208120601f850160051c810160208610156127865750805b601f850160051c820191505b8181101561154f57828155600101612792565b815167ffffffffffffffff8111156127bf576127bf612305565b6127d3816127cd8454612602565b8461275f565b602080601f83116001811461280857600084156127f05750858301515b600019600386901b1c1916600185901b17855561154f565b600085815260208120601f198616915b8281101561283757888601518255948401946001909101908401612818565b50858210156128555787850151600019600388901b60f8161c191681555b5050505050600190811b01905550565b60208082526032908201527f4552433732313a207472616e7366657220746f206e6f6e20455243373231526560408201527131b2b4bb32b91034b6b83632b6b2b73a32b960711b606082015260800190565b6001600160a01b03858116825284166020820152604081018390526080606082018190526000906128ea90830184612277565b9695505050505050565b60006020828403121561290657600080fd5b81516122708161223d565b634e487b7160e01b600052603160045260246000fdfea2646970667358221220d4a09f2eaded958c2a13cd2a47c5e4aeb2812eea8314fb43595944e940963be464736f6c63430008130033",
  "immutableReferences": {},
  "source": "// SPDX-License-Identifier: MIT\r\npragma solidity >=0.4.22 <0.9.0;\r\n\r\nimport \"@openzeppelin/contracts/token/ERC721/extensions/ERC721Enumerable.sol\";\r\nimport \"@openzeppelin/contracts/token/ERC721/ERC721.sol\";\r\nimport \"@openzeppelin/contracts/access/Ownable.sol\";\r\n\r\n\r\n\r\n\r\n\r\n\r\n\r\ncontract TimeLimitedOwnership is ERC721Enumerable, Ownable {\r\n    struct LeasePeriod {\r\n        uint256 startTime;\r\n        uint256 endTime;\r\n        uint256 pricePerDay; \r\n        address renter; \r\n    }\r\n\r\n    mapping(uint256 => LeasePeriod) public leasePeriods;\r\n    mapping(uint256 => string) private _tokenURIs;\r\n    mapping(uint256 => address) public originalOwner; \r\n\r\n    constructor() ERC721(\"TimeLimitedOwnership\", \"TLO\") {}\r\n\r\n    // Mint token ch vi thng tin metadata v t gi thu mi ngy\r\n    function mint(address to, uint256 tokenId, string memory tokenURI, uint256 pricePerDay) public{\r\n        require(!_exists(tokenId), \"Token already exists.\");\r\n        _mint(to, tokenId);\r\n        _setTokenURI(tokenId, tokenURI); // Lu metadata ca token\r\n\r\n        // Lu ch s hu ban u khi mint token\r\n        originalOwner[tokenId] = to;\r\n\r\n        // t gi thu mc nh theo ngy\r\n        leasePeriods[tokenId] = LeasePeriod(0, 0, pricePerDay, address(0));\r\n        \r\n    }\r\n\r\n\r\n\r\n    // Hm ly ch s hu ban u ca token\r\n    function getOriginalOwner(uint256 tokenId) public view returns (address) {\r\n        return originalOwner[tokenId];\r\n    }\r\n\r\n    // Hm ni b  lu tokenURI\r\n    function _setTokenURI(uint256 tokenId, string memory tokenURI) internal virtual {\r\n        require(_exists(tokenId), \"ERC721Metadata: URI set of nonexistent token\");\r\n        _tokenURIs[tokenId] = tokenURI;\r\n    }\r\n\r\n    // Hm  ly thng tin URI ca token\r\n    function tokenURI(uint256 tokenId) public view virtual override returns (string memory) {\r\n        require(_exists(tokenId), \"ERC721Metadata: URI query for nonexistent token\");\r\n        return _tokenURIs[tokenId];\r\n    }\r\n\r\n    // Hm ly danh sch ton b token\r\n    function getAllTokens() public view returns (uint256[] memory) {\r\n        uint256 totalTokens = totalSupply();\r\n        uint256[] memory tokens = new uint256[](totalTokens);\r\n        \r\n        for (uint256 i = 0; i < totalTokens; i++) {\r\n            tokens[i] = tokenByIndex(i);  // Ly tokenId ti index i\r\n        }\r\n        \r\n        return tokens;\r\n    }\r\n\r\n    // Ngi thu gi hm ny  thu token vi thi gian s hu gii hn v thanh ton theo ngy\r\n    function rentToken(uint256 tokenId, uint256 _startTime, uint256 _endTime) public payable {\r\n    require(ownerOf(tokenId) != msg.sender, \"You are already the owner of this token.\");\r\n    require(_startTime < _endTime, \"Start time must be before end time.\");\r\n    require(block.timestamp <= _startTime, \"Start time is in the past.\");\r\n    \r\n    // Kim tra nu token ang c thu v cha ht hn\r\n    require(leasePeriods[tokenId].endTime == 0 || block.timestamp > leasePeriods[tokenId].endTime, \"Token is still rented by someone else.\");\r\n\r\n    // Tnh s ngy thu\r\n    uint256 numberOfDays = (_endTime - _startTime) / 1 days;\r\n    require(numberOfDays > 0, \"The rental period must be at least one day.\");\r\n\r\n    // Tnh ton s tin phi tr\r\n    uint256 totalPrice = numberOfDays * leasePeriods[tokenId].pricePerDay;\r\n    require(msg.value >= totalPrice, \"Insufficient payment for rent.\");\r\n\r\n    // Lu thng tin thi gian thu (cha chuyn token ngay lp tc)\r\n    leasePeriods[tokenId] = LeasePeriod(_startTime, _endTime, leasePeriods[tokenId].pricePerDay, msg.sender);\r\n\r\n    // Thanh ton tin thu cho ch s hu\r\n    address owner = originalOwner[tokenId];\r\n    payable(owner).transfer(msg.value);\r\n}\r\n\r\nevent LeaseActivated(uint256 tokenId, address renter);\r\n// Chuyn token cho ngi thu khi thi gian thu bt u\r\nfunction activateLease(uint256 tokenId) public {\r\n    LeasePeriod memory leasePeriod = leasePeriods[tokenId];\r\n    require(leasePeriod.startTime != 0, \"No lease has been set for this token.\");\r\n    require(block.timestamp >= leasePeriod.startTime, \"Lease period has not started yet.\");\r\n    require(block.timestamp < leasePeriod.endTime, \"Lease period has already ended.\");\r\n    \r\n    address currentOwner = ownerOf(tokenId);\r\n    require(ownerOf(tokenId) == originalOwner[tokenId], \"Token has already been transferred.\");\r\n    // Chuyn token cho ngi thu\r\n    _transfer(currentOwner, leasePeriod.renter, tokenId);\r\n\r\n    emit LeaseActivated(tokenId, leasePeriod.renter);\r\n}\r\n\r\n\r\n\r\n\r\n    // Ngi thu c th chuyn nhng quyn thu cho ngi khc trong thi gian thu\r\n    function transferDuringLeasePeriod(address to, uint256 tokenId) public {\r\n        require(ownerOf(tokenId) == msg.sender, \"Only the current tenant can transfer the token.\");\r\n        require(block.timestamp < leasePeriods[tokenId].endTime, \"Lease period has ended.\");\r\n        \r\n        // Chuyn token cho ngi nhn mi\r\n        _transfer(msg.sender, to, tokenId);\r\n        leasePeriods[tokenId].renter = to;\r\n    }\r\n\r\n    // t gi thu mi ngy cho ti sn\r\n    function setRentPricePerDay(uint256 tokenId, uint256 pricePerDay) public {\r\n        require(ownerOf(tokenId) == msg.sender, \"Only the owner can set the rent price.\");\r\n        leasePeriods[tokenId].pricePerDay = pricePerDay;\r\n    }\r\n\r\n    // Hm thu hi token sau khi ht hn thu\r\n    function reclaimToken(uint256 tokenId) public {\r\n        require(block.timestamp > leasePeriods[tokenId].endTime, \"Lease period has not ended yet.\");\r\n        address currentOwner = ownerOf(tokenId);\r\n        _transfer(currentOwner, originalOwner[tokenId], tokenId);  // Chuyn token v ch s hu ban u sau khi ht hn\r\n    }\r\n\r\n    // Gia hn thi gian thu\r\n    function extendLease(uint256 tokenId, uint256 newEndTime) public payable {\r\n        require(ownerOf(tokenId) == msg.sender, \"Only the current tenant can extend the lease.\");\r\n        require(newEndTime > leasePeriods[tokenId].endTime, \"New end time must be later than the current end time.\");\r\n\r\n        uint256 additionalDays = (newEndTime - leasePeriods[tokenId].endTime) / 1 days;\r\n        uint256 additionalPrice = additionalDays * leasePeriods[tokenId].pricePerDay;\r\n\r\n        require(msg.value >= additionalPrice, \"Insufficient payment for extending lease.\");\r\n\r\n        // Cp nht thi gian thu\r\n        leasePeriods[tokenId].endTime = newEndTime;\r\n\r\n        // Thanh ton tin gia hn thu cho ch s hu\r\n        address owner = ownerOf(tokenId);\r\n        payable(owner).transfer(msg.value);\r\n    }\r\n}\r\n",
  "sourcePath": "C:\\Users\\Asus\\Desktop\\FinalProjectBlockchain\\contracts\\TimeLimitedOwnership.sol",
  "compiler": {
    "name": "solc",
    "version": "0.8.19+commit.7dd6d404.Emscripten.clang"
  },
  "schemaVersion": "3.4.16",
  "updatedAt": "2024-09-11T14:34:02.226Z",
  "networkType": "ethereum",
  "devdoc": {
    "events": {
      "Approval(address,address,uint256)": {
        "details": "Emitted when `owner` enables `approved` to manage the `tokenId` token."
      },
      "ApprovalForAll(address,address,bool)": {
        "details": "Emitted when `owner` enables or disables (`approved`) `operator` to manage all of its assets."
      },
      "Transfer(address,address,uint256)": {
        "details": "Emitted when `tokenId` token is transferred from `from` to `to`."
      }
    },
    "kind": "dev",
    "methods": {
      "approve(address,uint256)": {
        "details": "See {IERC721-approve}."
      },
      "balanceOf(address)": {
        "details": "See {IERC721-balanceOf}."
      },
      "getApproved(uint256)": {
        "details": "See {IERC721-getApproved}."
      },
      "isApprovedForAll(address,address)": {
        "details": "See {IERC721-isApprovedForAll}."
      },
      "name()": {
        "details": "See {IERC721Metadata-name}."
      },
      "owner()": {
        "details": "Returns the address of the current owner."
      },
      "ownerOf(uint256)": {
        "details": "See {IERC721-ownerOf}."
      },
      "renounceOwnership()": {
        "details": "Leaves the contract without owner. It will not be possible to call `onlyOwner` functions. Can only be called by the current owner. NOTE: Renouncing ownership will leave the contract without an owner, thereby disabling any functionality that is only available to the owner."
      },
      "safeTransferFrom(address,address,uint256)": {
        "details": "See {IERC721-safeTransferFrom}."
      },
      "safeTransferFrom(address,address,uint256,bytes)": {
        "details": "See {IERC721-safeTransferFrom}."
      },
      "setApprovalForAll(address,bool)": {
        "details": "See {IERC721-setApprovalForAll}."
      },
      "supportsInterface(bytes4)": {
        "details": "See {IERC165-supportsInterface}."
      },
      "symbol()": {
        "details": "See {IERC721Metadata-symbol}."
      },
      "tokenByIndex(uint256)": {
        "details": "See {IERC721Enumerable-tokenByIndex}."
      },
      "tokenOfOwnerByIndex(address,uint256)": {
        "details": "See {IERC721Enumerable-tokenOfOwnerByIndex}."
      },
      "tokenURI(uint256)": {
        "details": "See {IERC721Metadata-tokenURI}."
      },
      "totalSupply()": {
        "details": "See {IERC721Enumerable-totalSupply}."
      },
      "transferFrom(address,address,uint256)": {
        "details": "See {IERC721-transferFrom}."
      },
      "transferOwnership(address)": {
        "details": "Transfers ownership of the contract to a new account (`newOwner`). Can only be called by the current owner."
      }
    },
    "version": 1
  },
  "userdoc": {
    "kind": "user",
    "methods": {},
    "version": 1
  }
}