{
  "contractName": "TimeLimitedOwnership",
  "abi": [
    {
      "inputs": [],
      "stateMutability": "nonpayable",
      "type": "constructor"
    },
    {
      "anonymous": false,
      "inputs": [
        {
          "indexed": true,
          "internalType": "address",
          "name": "owner",
          "type": "address"
        },
        {
          "indexed": true,
          "internalType": "address",
          "name": "approved",
          "type": "address"
        },
        {
          "indexed": true,
          "internalType": "uint256",
          "name": "tokenId",
          "type": "uint256"
        }
      ],
      "name": "Approval",
      "type": "event"
    },
    {
      "anonymous": false,
      "inputs": [
        {
          "indexed": true,
          "internalType": "address",
          "name": "owner",
          "type": "address"
        },
        {
          "indexed": true,
          "internalType": "address",
          "name": "operator",
          "type": "address"
        },
        {
          "indexed": false,
          "internalType": "bool",
          "name": "approved",
          "type": "bool"
        }
      ],
      "name": "ApprovalForAll",
      "type": "event"
    },
    {
      "anonymous": false,
      "inputs": [
        {
          "indexed": true,
          "internalType": "address",
          "name": "previousOwner",
          "type": "address"
        },
        {
          "indexed": true,
          "internalType": "address",
          "name": "newOwner",
          "type": "address"
        }
      ],
      "name": "OwnershipTransferred",
      "type": "event"
    },
    {
      "anonymous": false,
      "inputs": [
        {
          "indexed": true,
          "internalType": "address",
          "name": "from",
          "type": "address"
        },
        {
          "indexed": true,
          "internalType": "address",
          "name": "to",
          "type": "address"
        },
        {
          "indexed": true,
          "internalType": "uint256",
          "name": "tokenId",
          "type": "uint256"
        }
      ],
      "name": "Transfer",
      "type": "event"
    },
    {
      "inputs": [
        {
          "internalType": "address",
          "name": "to",
          "type": "address"
        },
        {
          "internalType": "uint256",
          "name": "tokenId",
          "type": "uint256"
        }
      ],
      "name": "approve",
      "outputs": [],
      "stateMutability": "nonpayable",
      "type": "function"
    },
    {
      "inputs": [
        {
          "internalType": "address",
          "name": "owner",
          "type": "address"
        }
      ],
      "name": "balanceOf",
      "outputs": [
        {
          "internalType": "uint256",
          "name": "",
          "type": "uint256"
        }
      ],
      "stateMutability": "view",
      "type": "function",
      "constant": true
    },
    {
      "inputs": [
        {
          "internalType": "uint256",
          "name": "tokenId",
          "type": "uint256"
        }
      ],
      "name": "getApproved",
      "outputs": [
        {
          "internalType": "address",
          "name": "",
          "type": "address"
        }
      ],
      "stateMutability": "view",
      "type": "function",
      "constant": true
    },
    {
      "inputs": [
        {
          "internalType": "address",
          "name": "owner",
          "type": "address"
        },
        {
          "internalType": "address",
          "name": "operator",
          "type": "address"
        }
      ],
      "name": "isApprovedForAll",
      "outputs": [
        {
          "internalType": "bool",
          "name": "",
          "type": "bool"
        }
      ],
      "stateMutability": "view",
      "type": "function",
      "constant": true
    },
    {
      "inputs": [
        {
          "internalType": "uint256",
          "name": "",
          "type": "uint256"
        }
      ],
      "name": "leasePeriods",
      "outputs": [
        {
          "internalType": "uint256",
          "name": "startTime",
          "type": "uint256"
        },
        {
          "internalType": "uint256",
          "name": "endTime",
          "type": "uint256"
        },
        {
          "internalType": "uint256",
          "name": "pricePerDay",
          "type": "uint256"
        }
      ],
      "stateMutability": "view",
      "type": "function",
      "constant": true
    },
    {
      "inputs": [],
      "name": "name",
      "outputs": [
        {
          "internalType": "string",
          "name": "",
          "type": "string"
        }
      ],
      "stateMutability": "view",
      "type": "function",
      "constant": true
    },
    {
      "inputs": [
        {
          "internalType": "uint256",
          "name": "",
          "type": "uint256"
        }
      ],
      "name": "originalOwner",
      "outputs": [
        {
          "internalType": "address",
          "name": "",
          "type": "address"
        }
      ],
      "stateMutability": "view",
      "type": "function",
      "constant": true
    },
    {
      "inputs": [],
      "name": "owner",
      "outputs": [
        {
          "internalType": "address",
          "name": "",
          "type": "address"
        }
      ],
      "stateMutability": "view",
      "type": "function",
      "constant": true
    },
    {
      "inputs": [
        {
          "internalType": "uint256",
          "name": "tokenId",
          "type": "uint256"
        }
      ],
      "name": "ownerOf",
      "outputs": [
        {
          "internalType": "address",
          "name": "",
          "type": "address"
        }
      ],
      "stateMutability": "view",
      "type": "function",
      "constant": true
    },
    {
      "inputs": [],
      "name": "renounceOwnership",
      "outputs": [],
      "stateMutability": "nonpayable",
      "type": "function"
    },
    {
      "inputs": [
        {
          "internalType": "address",
          "name": "from",
          "type": "address"
        },
        {
          "internalType": "address",
          "name": "to",
          "type": "address"
        },
        {
          "internalType": "uint256",
          "name": "tokenId",
          "type": "uint256"
        }
      ],
      "name": "safeTransferFrom",
      "outputs": [],
      "stateMutability": "nonpayable",
      "type": "function"
    },
    {
      "inputs": [
        {
          "internalType": "address",
          "name": "from",
          "type": "address"
        },
        {
          "internalType": "address",
          "name": "to",
          "type": "address"
        },
        {
          "internalType": "uint256",
          "name": "tokenId",
          "type": "uint256"
        },
        {
          "internalType": "bytes",
          "name": "data",
          "type": "bytes"
        }
      ],
      "name": "safeTransferFrom",
      "outputs": [],
      "stateMutability": "nonpayable",
      "type": "function"
    },
    {
      "inputs": [
        {
          "internalType": "address",
          "name": "operator",
          "type": "address"
        },
        {
          "internalType": "bool",
          "name": "approved",
          "type": "bool"
        }
      ],
      "name": "setApprovalForAll",
      "outputs": [],
      "stateMutability": "nonpayable",
      "type": "function"
    },
    {
      "inputs": [
        {
          "internalType": "bytes4",
          "name": "interfaceId",
          "type": "bytes4"
        }
      ],
      "name": "supportsInterface",
      "outputs": [
        {
          "internalType": "bool",
          "name": "",
          "type": "bool"
        }
      ],
      "stateMutability": "view",
      "type": "function",
      "constant": true
    },
    {
      "inputs": [],
      "name": "symbol",
      "outputs": [
        {
          "internalType": "string",
          "name": "",
          "type": "string"
        }
      ],
      "stateMutability": "view",
      "type": "function",
      "constant": true
    },
    {
      "inputs": [
        {
          "internalType": "uint256",
          "name": "index",
          "type": "uint256"
        }
      ],
      "name": "tokenByIndex",
      "outputs": [
        {
          "internalType": "uint256",
          "name": "",
          "type": "uint256"
        }
      ],
      "stateMutability": "view",
      "type": "function",
      "constant": true
    },
    {
      "inputs": [
        {
          "internalType": "address",
          "name": "owner",
          "type": "address"
        },
        {
          "internalType": "uint256",
          "name": "index",
          "type": "uint256"
        }
      ],
      "name": "tokenOfOwnerByIndex",
      "outputs": [
        {
          "internalType": "uint256",
          "name": "",
          "type": "uint256"
        }
      ],
      "stateMutability": "view",
      "type": "function",
      "constant": true
    },
    {
      "inputs": [],
      "name": "totalSupply",
      "outputs": [
        {
          "internalType": "uint256",
          "name": "",
          "type": "uint256"
        }
      ],
      "stateMutability": "view",
      "type": "function",
      "constant": true
    },
    {
      "inputs": [
        {
          "internalType": "address",
          "name": "from",
          "type": "address"
        },
        {
          "internalType": "address",
          "name": "to",
          "type": "address"
        },
        {
          "internalType": "uint256",
          "name": "tokenId",
          "type": "uint256"
        }
      ],
      "name": "transferFrom",
      "outputs": [],
      "stateMutability": "nonpayable",
      "type": "function"
    },
    {
      "inputs": [
        {
          "internalType": "address",
          "name": "newOwner",
          "type": "address"
        }
      ],
      "name": "transferOwnership",
      "outputs": [],
      "stateMutability": "nonpayable",
      "type": "function"
    },
    {
      "inputs": [
        {
          "internalType": "address",
          "name": "to",
          "type": "address"
        },
        {
          "internalType": "uint256",
          "name": "tokenId",
          "type": "uint256"
        },
        {
          "internalType": "string",
          "name": "tokenURI",
          "type": "string"
        },
        {
          "internalType": "uint256",
          "name": "pricePerDay",
          "type": "uint256"
        }
      ],
      "name": "mint",
      "outputs": [],
      "stateMutability": "nonpayable",
      "type": "function"
    },
    {
      "inputs": [
        {
          "internalType": "uint256",
          "name": "tokenId",
          "type": "uint256"
        }
      ],
      "name": "getOriginalOwner",
      "outputs": [
        {
          "internalType": "address",
          "name": "",
          "type": "address"
        }
      ],
      "stateMutability": "view",
      "type": "function",
      "constant": true
    },
    {
      "inputs": [
        {
          "internalType": "uint256",
          "name": "tokenId",
          "type": "uint256"
        }
      ],
      "name": "tokenURI",
      "outputs": [
        {
          "internalType": "string",
          "name": "",
          "type": "string"
        }
      ],
      "stateMutability": "view",
      "type": "function",
      "constant": true
    },
    {
      "inputs": [],
      "name": "getAllTokens",
      "outputs": [
        {
          "internalType": "uint256[]",
          "name": "",
          "type": "uint256[]"
        }
      ],
      "stateMutability": "view",
      "type": "function",
      "constant": true
    },
    {
      "inputs": [
        {
          "internalType": "uint256",
          "name": "tokenId",
          "type": "uint256"
        },
        {
          "internalType": "uint256",
          "name": "_startTime",
          "type": "uint256"
        },
        {
          "internalType": "uint256",
          "name": "_endTime",
          "type": "uint256"
        }
      ],
      "name": "rentToken",
      "outputs": [],
      "stateMutability": "payable",
      "type": "function",
      "payable": true
    },
    {
      "inputs": [
        {
          "internalType": "address",
          "name": "to",
          "type": "address"
        },
        {
          "internalType": "uint256",
          "name": "tokenId",
          "type": "uint256"
        }
      ],
      "name": "transferDuringLeasePeriod",
      "outputs": [],
      "stateMutability": "nonpayable",
      "type": "function"
    },
    {
      "inputs": [
        {
          "internalType": "uint256",
          "name": "tokenId",
          "type": "uint256"
        },
        {
          "internalType": "uint256",
          "name": "pricePerDay",
          "type": "uint256"
        }
      ],
      "name": "setRentPricePerDay",
      "outputs": [],
      "stateMutability": "nonpayable",
      "type": "function"
    },
    {
      "inputs": [
        {
          "internalType": "uint256",
          "name": "tokenId",
          "type": "uint256"
        }
      ],
      "name": "reclaimToken",
      "outputs": [],
      "stateMutability": "nonpayable",
      "type": "function"
    },
    {
      "inputs": [
        {
          "internalType": "uint256",
          "name": "tokenId",
          "type": "uint256"
        },
        {
          "internalType": "uint256",
          "name": "newEndTime",
          "type": "uint256"
        }
      ],
      "name": "extendLease",
      "outputs": [],
      "stateMutability": "payable",
      "type": "function",
      "payable": true
    }
  ],
  "bytecode": "0x60806040523480156200001157600080fd5b506040518060400160405280601481526020017f54696d654c696d697465644f776e65727368697000000000000000000000000081525060405180604001604052806003815260200162544c4f60e81b8152508160009081620000759190620001a2565b506001620000848282620001a2565b505050620000a16200009b620000a760201b60201c565b620000ab565b6200026e565b3390565b600a80546001600160a01b038381166001600160a01b0319831681179093556040519116919082907f8be0079c531659141344cd1fd0a4f28419497f9722a3daafe3b4186f6b6457e090600090a35050565b634e487b7160e01b600052604160045260246000fd5b600181811c908216806200012857607f821691505b6020821081036200014957634e487b7160e01b600052602260045260246000fd5b50919050565b601f8211156200019d57600081815260208120601f850160051c81016020861015620001785750805b601f850160051c820191505b81811015620001995782815560010162000184565b5050505b505050565b81516001600160401b03811115620001be57620001be620000fd565b620001d681620001cf845462000113565b846200014f565b602080601f8311600181146200020e5760008415620001f55750858301515b600019600386901b1c1916600185901b17855562000199565b600085815260208120601f198616915b828110156200023f578886015182559484019460019091019084016200021e565b50858210156200025e5787850151600019600388901b60f8161c191681555b5050505050600190811b01905550565b612602806200027e6000396000f3fe6080604052600436106101c25760003560e01c8063508061a2116100f757806395d89b4111610095578063c87b56dd11610064578063c87b56dd1461054a578063e985e9c51461056a578063f2fde38b146105b3578063faee5bee146105d357600080fd5b806395d89b411461049e578063a22cb465146104b3578063b88d4fde146104d3578063c0666f10146104f357600080fd5b8063715018a6116100d1578063715018a61461043857806376ab4ffc1461044d578063806d4a721461046d5780638da5cb5b1461048057600080fd5b8063508061a2146103d85780636352211e146103f857806370a082311461041857600080fd5b806323b872dd1161016457806340bb154d1161013e57806340bb154d1461032c57806342842e0e146103625780634eeba5be146103825780634f6ccce7146103b857600080fd5b806323b872dd146102ca5780632a5c792a146102ea5780632f745c591461030c57600080fd5b806308a8d7aa116101a057806308a8d7aa14610256578063095ea7b31461027857806318160ddd146102985780631c2098dc146102b757600080fd5b806301ffc9a7146101c757806306fdde03146101fc578063081812fc1461021e575b600080fd5b3480156101d357600080fd5b506101e76101e2366004611ef8565b6105f3565b60405190151581526020015b60405180910390f35b34801561020857600080fd5b5061021161061e565b6040516101f39190611f62565b34801561022a57600080fd5b5061023e610239366004611f75565b6106b0565b6040516001600160a01b0390911681526020016101f3565b34801561026257600080fd5b50610276610271366004612036565b6106d7565b005b34801561028457600080fd5b506102766102933660046120a9565b6107a5565b3480156102a457600080fd5b506008545b6040519081526020016101f3565b6102766102c53660046120d3565b6108ba565b3480156102d657600080fd5b506102766102e53660046120ff565b610b74565b3480156102f657600080fd5b506102ff610ba5565b6040516101f3919061213b565b34801561031857600080fd5b506102a96103273660046120a9565b610c45565b34801561033857600080fd5b5061023e610347366004611f75565b600d602052600090815260409020546001600160a01b031681565b34801561036e57600080fd5b5061027661037d3660046120ff565b610cdb565b34801561038e57600080fd5b5061023e61039d366004611f75565b6000908152600d60205260409020546001600160a01b031690565b3480156103c457600080fd5b506102a96103d3366004611f75565b610cf6565b3480156103e457600080fd5b506102766103f3366004611f75565b610d89565b34801561040457600080fd5b5061023e610413366004611f75565b610e1f565b34801561042457600080fd5b506102a961043336600461217f565b610e7f565b34801561044457600080fd5b50610276610f05565b34801561045957600080fd5b506102766104683660046120a9565b610f19565b61027661047b36600461219a565b610ffc565b34801561048c57600080fd5b50600a546001600160a01b031661023e565b3480156104aa57600080fd5b506102116111fc565b3480156104bf57600080fd5b506102766104ce3660046121bc565b61120b565b3480156104df57600080fd5b506102766104ee3660046121f8565b611216565b3480156104ff57600080fd5b5061052f61050e366004611f75565b600b6020526000908152604090208054600182015460029092015490919083565b604080519384526020840192909252908201526060016101f3565b34801561055657600080fd5b50610211610565366004611f75565b61124e565b34801561057657600080fd5b506101e7610585366004612274565b6001600160a01b03918216600090815260056020908152604080832093909416825291909152205460ff1690565b3480156105bf57600080fd5b506102766105ce36600461217f565b61135b565b3480156105df57600080fd5b506102766105ee36600461219a565b6113d4565b60006001600160e01b0319821663780e9d6360e01b1480610618575061061882611458565b92915050565b60606000805461062d906122a7565b80601f0160208091040260200160405190810160405280929190818152602001828054610659906122a7565b80156106a65780601f1061067b576101008083540402835291602001916106a6565b820191906000526020600020905b81548152906001019060200180831161068957829003601f168201915b5050505050905090565b60006106bb826114a8565b506000908152600460205260409020546001600160a01b031690565b6106e0836114f8565b1561072a5760405162461bcd60e51b81526020600482015260156024820152742a37b5b2b71030b63932b0b23c9032bc34b9ba399760591b60448201526064015b60405180910390fd5b6107348484611515565b61073e8383611690565b6000838152600d6020908152604080832080546001600160a01b0319166001600160a01b0398909816979097179096558551606081018752828152808201838152818801948552958352600b90915294902093518455915160018401555051600290910155565b60006107b082610e1f565b9050806001600160a01b0316836001600160a01b03160361081d5760405162461bcd60e51b815260206004820152602160248201527f4552433732313a20617070726f76616c20746f2063757272656e74206f776e656044820152603960f91b6064820152608401610721565b336001600160a01b038216148061083957506108398133610585565b6108ab5760405162461bcd60e51b815260206004820152603d60248201527f4552433732313a20617070726f76652063616c6c6572206973206e6f7420746f60448201527f6b656e206f776e6572206f7220617070726f76656420666f7220616c6c0000006064820152608401610721565b6108b58383611712565b505050565b336108c484610e1f565b6001600160a01b03160361092b5760405162461bcd60e51b815260206004820152602860248201527f596f752061726520616c726561647920746865206f776e6572206f662074686960448201526739903a37b5b2b71760c11b6064820152608401610721565b8082106109865760405162461bcd60e51b815260206004820152602360248201527f53746172742074696d65206d757374206265206265666f726520656e6420746960448201526236b29760e91b6064820152608401610721565b814211156109d65760405162461bcd60e51b815260206004820152601a60248201527f53746172742074696d6520697320696e2074686520706173742e0000000000006044820152606401610721565b6000620151806109e684846122f7565b6109f0919061230a565b905060008111610a565760405162461bcd60e51b815260206004820152602b60248201527f5468652072656e74616c20706572696f64206d757374206265206174206c656160448201526a39ba1037b732903230bc9760a91b6064820152608401610721565b6000848152600b6020526040812060020154610a72908361232c565b905080341015610ac45760405162461bcd60e51b815260206004820152601e60248201527f496e73756666696369656e74207061796d656e7420666f722072656e742e00006044820152606401610721565b6040805160608101825285815260208082018681526000898152600b8084528582206002810180549787019788528c84529190945293518355905160019092019190915591519055610b1586610e1f565b9050610b22813388611780565b6000868152600d60205260408082205490516001600160a01b039091169182913480156108fc0292909190818181858888f19350505050158015610b6a573d6000803e3d6000fd5b5050505050505050565b610b7e33826118f1565b610b9a5760405162461bcd60e51b815260040161072190612343565b6108b5838383611780565b60606000610bb260085490565b905060008167ffffffffffffffff811115610bcf57610bcf611faa565b604051908082528060200260200182016040528015610bf8578160200160208202803683370190505b50905060005b82811015610c3e57610c0f81610cf6565b828281518110610c2157610c21612390565b602090810291909101015280610c36816123a6565b915050610bfe565b5092915050565b6000610c5083610e7f565b8210610cb25760405162461bcd60e51b815260206004820152602b60248201527f455243373231456e756d657261626c653a206f776e657220696e646578206f7560448201526a74206f6620626f756e647360a81b6064820152608401610721565b506001600160a01b03919091166000908152600660209081526040808320938352929052205490565b6108b583838360405180602001604052806000815250611216565b6000610d0160085490565b8210610d645760405162461bcd60e51b815260206004820152602c60248201527f455243373231456e756d657261626c653a20676c6f62616c20696e646578206f60448201526b7574206f6620626f756e647360a01b6064820152608401610721565b60088281548110610d7757610d77612390565b90600052602060002001549050919050565b6000818152600b60205260409020600101544211610de95760405162461bcd60e51b815260206004820152601f60248201527f4c6561736520706572696f6420686173206e6f7420656e646564207965742e006044820152606401610721565b6000610df482610e1f565b6000838152600d6020526040902054909150610e1b9082906001600160a01b031684611780565b5050565b6000818152600260205260408120546001600160a01b0316806106185760405162461bcd60e51b8152602060048201526018602482015277115490cdcc8c4e881a5b9d985b1a59081d1bdad95b88125160421b6044820152606401610721565b60006001600160a01b038216610ee95760405162461bcd60e51b815260206004820152602960248201527f4552433732313a2061646472657373207a65726f206973206e6f7420612076616044820152683634b21037bbb732b960b91b6064820152608401610721565b506001600160a01b031660009081526003602052604090205490565b610f0d611970565b610f1760006119ca565b565b33610f2382610e1f565b6001600160a01b031614610f915760405162461bcd60e51b815260206004820152602f60248201527f4f6e6c79207468652063757272656e742074656e616e742063616e207472616e60448201526e39b332b9103a3432903a37b5b2b71760891b6064820152608401610721565b6000818152600b60205260409020600101544210610ff15760405162461bcd60e51b815260206004820152601760248201527f4c6561736520706572696f642068617320656e6465642e0000000000000000006044820152606401610721565b610e1b338383611780565b3361100683610e1f565b6001600160a01b0316146110725760405162461bcd60e51b815260206004820152602d60248201527f4f6e6c79207468652063757272656e742074656e616e742063616e206578746560448201526c3732103a3432903632b0b9b29760991b6064820152608401610721565b6000828152600b602052604090206001015481116110f05760405162461bcd60e51b815260206004820152603560248201527f4e657720656e642074696d65206d757374206265206c61746572207468616e206044820152743a34329031bab93932b73a1032b732103a34b6b29760591b6064820152608401610721565b6000828152600b6020526040812060010154620151809061111190846122f7565b61111b919061230a565b6000848152600b60205260408120600201549192509061113b908361232c565b90508034101561119f5760405162461bcd60e51b815260206004820152602960248201527f496e73756666696369656e74207061796d656e7420666f7220657874656e64696044820152683733903632b0b9b29760b91b6064820152608401610721565b6000848152600b602052604081206001018490556111bc85610e1f565b6040519091506001600160a01b038216903480156108fc02916000818181858888f193505050501580156111f4573d6000803e3d6000fd5b505050505050565b60606001805461062d906122a7565b610e1b338383611a1c565b61122033836118f1565b61123c5760405162461bcd60e51b815260040161072190612343565b61124884848484611aea565b50505050565b6060611259826114f8565b6112bd5760405162461bcd60e51b815260206004820152602f60248201527f4552433732314d657461646174613a2055524920717565727920666f72206e6f60448201526e3732bc34b9ba32b73a103a37b5b2b760891b6064820152608401610721565b6000828152600c6020526040902080546112d6906122a7565b80601f0160208091040260200160405190810160405280929190818152602001828054611302906122a7565b801561134f5780601f106113245761010080835404028352916020019161134f565b820191906000526020600020905b81548152906001019060200180831161133257829003601f168201915b50505050509050919050565b611363611970565b6001600160a01b0381166113c85760405162461bcd60e51b815260206004820152602660248201527f4f776e61626c653a206e6577206f776e657220697320746865207a65726f206160448201526564647265737360d01b6064820152608401610721565b6113d1816119ca565b50565b336113de83610e1f565b6001600160a01b0316146114435760405162461bcd60e51b815260206004820152602660248201527f4f6e6c7920746865206f776e65722063616e20736574207468652072656e7420604482015265383934b1b29760d11b6064820152608401610721565b6000918252600b602052604090912060020155565b60006001600160e01b031982166380ac58cd60e01b148061148957506001600160e01b03198216635b5e139f60e01b145b8061061857506301ffc9a760e01b6001600160e01b0319831614610618565b6114b1816114f8565b6113d15760405162461bcd60e51b8152602060048201526018602482015277115490cdcc8c4e881a5b9d985b1a59081d1bdad95b88125160421b6044820152606401610721565b6000908152600260205260409020546001600160a01b0316151590565b6001600160a01b03821661156b5760405162461bcd60e51b815260206004820181905260248201527f4552433732313a206d696e7420746f20746865207a65726f20616464726573736044820152606401610721565b611574816114f8565b156115c15760405162461bcd60e51b815260206004820152601c60248201527f4552433732313a20746f6b656e20616c7265616479206d696e746564000000006044820152606401610721565b6115cf600083836001611b1d565b6115d8816114f8565b156116255760405162461bcd60e51b815260206004820152601c60248201527f4552433732313a20746f6b656e20616c7265616479206d696e746564000000006044820152606401610721565b6001600160a01b038216600081815260036020908152604080832080546001019055848352600290915280822080546001600160a01b0319168417905551839291907fddf252ad1be2c89b69c2b068fc378daa952ba7f163c4a11628f55a4df523b3ef908290a45050565b611699826114f8565b6116fa5760405162461bcd60e51b815260206004820152602c60248201527f4552433732314d657461646174613a2055524920736574206f66206e6f6e657860448201526b34b9ba32b73a103a37b5b2b760a11b6064820152608401610721565b6000828152600c602052604090206108b58282612405565b600081815260046020526040902080546001600160a01b0319166001600160a01b038416908117909155819061174782610e1f565b6001600160a01b03167f8c5be1e5ebec7d5bd14f71427d1e84f3dd0314c0f7b2291e5b200ac8c7c3b92560405160405180910390a45050565b826001600160a01b031661179382610e1f565b6001600160a01b0316146117b95760405162461bcd60e51b8152600401610721906124c5565b6001600160a01b03821661181b5760405162461bcd60e51b8152602060048201526024808201527f4552433732313a207472616e7366657220746f20746865207a65726f206164646044820152637265737360e01b6064820152608401610721565b6118288383836001611b1d565b826001600160a01b031661183b82610e1f565b6001600160a01b0316146118615760405162461bcd60e51b8152600401610721906124c5565b600081815260046020908152604080832080546001600160a01b03199081169091556001600160a01b0387811680865260038552838620805460001901905590871680865283862080546001019055868652600290945282852080549092168417909155905184937fddf252ad1be2c89b69c2b068fc378daa952ba7f163c4a11628f55a4df523b3ef91a4505050565b6000806118fd83610e1f565b9050806001600160a01b0316846001600160a01b0316148061194457506001600160a01b0380821660009081526005602090815260408083209388168352929052205460ff165b806119685750836001600160a01b031661195d846106b0565b6001600160a01b0316145b949350505050565b600a546001600160a01b03163314610f175760405162461bcd60e51b815260206004820181905260248201527f4f776e61626c653a2063616c6c6572206973206e6f7420746865206f776e65726044820152606401610721565b600a80546001600160a01b038381166001600160a01b0319831681179093556040519116919082907f8be0079c531659141344cd1fd0a4f28419497f9722a3daafe3b4186f6b6457e090600090a35050565b816001600160a01b0316836001600160a01b031603611a7d5760405162461bcd60e51b815260206004820152601960248201527f4552433732313a20617070726f766520746f2063616c6c6572000000000000006044820152606401610721565b6001600160a01b03838116600081815260056020908152604080832094871680845294825291829020805460ff191686151590811790915591519182527f17307eab39ab6107e8899845ad3d59bd9653f200f220920489ca2b5937696c31910160405180910390a3505050565b611af5848484611780565b611b0184848484611c51565b6112485760405162461bcd60e51b81526004016107219061250a565b6001811115611b8c5760405162461bcd60e51b815260206004820152603560248201527f455243373231456e756d657261626c653a20636f6e7365637574697665207472604482015274185b9cd9995c9cc81b9bdd081cdd5c1c1bdc9d1959605a1b6064820152608401610721565b816001600160a01b038516611be857611be381600880546000838152600960205260408120829055600182018355919091527ff3f7a9fe364faab93b216da50a3214154f22a0a2b415b23a84c8169e8b636ee30155565b611c0b565b836001600160a01b0316856001600160a01b031614611c0b57611c0b8582611d52565b6001600160a01b038416611c2757611c2281611def565b611c4a565b846001600160a01b0316846001600160a01b031614611c4a57611c4a8482611e9e565b5050505050565b60006001600160a01b0384163b15611d4757604051630a85bd0160e11b81526001600160a01b0385169063150b7a0290611c9590339089908890889060040161255c565b6020604051808303816000875af1925050508015611cd0575060408051601f3d908101601f19168201909252611ccd91810190612599565b60015b611d2d573d808015611cfe576040519150601f19603f3d011682016040523d82523d6000602084013e611d03565b606091505b508051600003611d255760405162461bcd60e51b81526004016107219061250a565b805181602001fd5b6001600160e01b031916630a85bd0160e11b149050611968565b506001949350505050565b60006001611d5f84610e7f565b611d6991906122f7565b600083815260076020526040902054909150808214611dbc576001600160a01b03841660009081526006602090815260408083208584528252808320548484528184208190558352600790915290208190555b5060009182526007602090815260408084208490556001600160a01b039094168352600681528383209183525290812055565b600854600090611e01906001906122f7565b60008381526009602052604081205460088054939450909284908110611e2957611e29612390565b906000526020600020015490508060088381548110611e4a57611e4a612390565b6000918252602080832090910192909255828152600990915260408082208490558582528120556008805480611e8257611e826125b6565b6001900381819060005260206000200160009055905550505050565b6000611ea983610e7f565b6001600160a01b039093166000908152600660209081526040808320868452825280832085905593825260079052919091209190915550565b6001600160e01b0319811681146113d157600080fd5b600060208284031215611f0a57600080fd5b8135611f1581611ee2565b9392505050565b6000815180845260005b81811015611f4257602081850181015186830182015201611f26565b506000602082860101526020601f19601f83011685010191505092915050565b602081526000611f156020830184611f1c565b600060208284031215611f8757600080fd5b5035919050565b80356001600160a01b0381168114611fa557600080fd5b919050565b634e487b7160e01b600052604160045260246000fd5b600067ffffffffffffffff80841115611fdb57611fdb611faa565b604051601f8501601f19908116603f0116810190828211818310171561200357612003611faa565b8160405280935085815286868601111561201c57600080fd5b858560208301376000602087830101525050509392505050565b6000806000806080858703121561204c57600080fd5b61205585611f8e565b935060208501359250604085013567ffffffffffffffff81111561207857600080fd5b8501601f8101871361208957600080fd5b61209887823560208401611fc0565b949793965093946060013593505050565b600080604083850312156120bc57600080fd5b6120c583611f8e565b946020939093013593505050565b6000806000606084860312156120e857600080fd5b505081359360208301359350604090920135919050565b60008060006060848603121561211457600080fd5b61211d84611f8e565b925061212b60208501611f8e565b9150604084013590509250925092565b6020808252825182820181905260009190848201906040850190845b8181101561217357835183529284019291840191600101612157565b50909695505050505050565b60006020828403121561219157600080fd5b611f1582611f8e565b600080604083850312156121ad57600080fd5b50508035926020909101359150565b600080604083850312156121cf57600080fd5b6121d883611f8e565b9150602083013580151581146121ed57600080fd5b809150509250929050565b6000806000806080858703121561220e57600080fd5b61221785611f8e565b935061222560208601611f8e565b925060408501359150606085013567ffffffffffffffff81111561224857600080fd5b8501601f8101871361225957600080fd5b61226887823560208401611fc0565b91505092959194509250565b6000806040838503121561228757600080fd5b61229083611f8e565b915061229e60208401611f8e565b90509250929050565b600181811c908216806122bb57607f821691505b6020821081036122db57634e487b7160e01b600052602260045260246000fd5b50919050565b634e487b7160e01b600052601160045260246000fd5b81810381811115610618576106186122e1565b60008261232757634e487b7160e01b600052601260045260246000fd5b500490565b8082028115828204841417610618576106186122e1565b6020808252602d908201527f4552433732313a2063616c6c6572206973206e6f7420746f6b656e206f776e6560408201526c1c881bdc88185c1c1c9bdd9959609a1b606082015260800190565b634e487b7160e01b600052603260045260246000fd5b6000600182016123b8576123b86122e1565b5060010190565b601f8211156108b557600081815260208120601f850160051c810160208610156123e65750805b601f850160051c820191505b818110156111f4578281556001016123f2565b815167ffffffffffffffff81111561241f5761241f611faa565b6124338161242d84546122a7565b846123bf565b602080601f83116001811461246857600084156124505750858301515b600019600386901b1c1916600185901b1785556111f4565b600085815260208120601f198616915b8281101561249757888601518255948401946001909101908401612478565b50858210156124b55787850151600019600388901b60f8161c191681555b5050505050600190811b01905550565b60208082526025908201527f4552433732313a207472616e736665722066726f6d20696e636f72726563742060408201526437bbb732b960d91b606082015260800190565b60208082526032908201527f4552433732313a207472616e7366657220746f206e6f6e20455243373231526560408201527131b2b4bb32b91034b6b83632b6b2b73a32b960711b606082015260800190565b6001600160a01b038581168252841660208201526040810183905260806060820181905260009061258f90830184611f1c565b9695505050505050565b6000602082840312156125ab57600080fd5b8151611f1581611ee2565b634e487b7160e01b600052603160045260246000fdfea2646970667358221220b72878c57b78703d3b34d0f128c26496d09c826845715e8a535e3b95f368e43f64736f6c63430008130033",
  "immutableReferences": {},
  "source": "// SPDX-License-Identifier: MIT\r\npragma solidity >=0.4.22 <0.9.0;\r\n\r\nimport \"@openzeppelin/contracts/token/ERC721/extensions/ERC721Enumerable.sol\";\r\nimport \"@openzeppelin/contracts/token/ERC721/ERC721.sol\";\r\nimport \"@openzeppelin/contracts/access/Ownable.sol\";\r\n\r\ncontract TimeLimitedOwnership is ERC721Enumerable, Ownable {\r\n    struct LeasePeriod {\r\n        uint256 startTime;\r\n        uint256 endTime;\r\n        uint256 pricePerDay; // Gi thu mi ngy\r\n    }\r\n\r\n    mapping(uint256 => LeasePeriod) public leasePeriods;\r\n    mapping(uint256 => string) private _tokenURIs;\r\n    mapping(uint256 => address) public originalOwner; // Thm mapping  lu ch s hu ban u ca token\r\n\r\n    constructor() ERC721(\"TimeLimitedOwnership\", \"TLO\") {}\r\n\r\n    // Mint token ch vi thng tin metadata v t gi thu mi ngy\r\n    function mint(address to, uint256 tokenId, string memory tokenURI, uint256 pricePerDay) public{\r\n        require(!_exists(tokenId), \"Token already exists.\");\r\n        _mint(to, tokenId);\r\n        _setTokenURI(tokenId, tokenURI); // Lu metadata ca token\r\n\r\n        // Lu ch s hu ban u khi mint token\r\n        originalOwner[tokenId] = to;\r\n\r\n        // t gi thu mc nh theo ngy\r\n        leasePeriods[tokenId] = LeasePeriod(0, 0, pricePerDay);\r\n    }\r\n\r\n    // Hm ly ch s hu ban u ca token\r\n    function getOriginalOwner(uint256 tokenId) public view returns (address) {\r\n        return originalOwner[tokenId];\r\n    }\r\n\r\n    // Hm ni b  lu tokenURI\r\n    function _setTokenURI(uint256 tokenId, string memory tokenURI) internal virtual {\r\n        require(_exists(tokenId), \"ERC721Metadata: URI set of nonexistent token\");\r\n        _tokenURIs[tokenId] = tokenURI;\r\n    }\r\n\r\n    // Hm  ly thng tin URI ca token\r\n    function tokenURI(uint256 tokenId) public view virtual override returns (string memory) {\r\n        require(_exists(tokenId), \"ERC721Metadata: URI query for nonexistent token\");\r\n        return _tokenURIs[tokenId];\r\n    }\r\n\r\n    // Hm ly danh sch ton b token\r\n    function getAllTokens() public view returns (uint256[] memory) {\r\n        uint256 totalTokens = totalSupply();\r\n        uint256[] memory tokens = new uint256[](totalTokens);\r\n        \r\n        for (uint256 i = 0; i < totalTokens; i++) {\r\n            tokens[i] = tokenByIndex(i);  // Ly tokenId ti index i\r\n        }\r\n        \r\n        return tokens;\r\n    }\r\n\r\n    // Ngi thu gi hm ny  thu token vi thi gian s hu gii hn v thanh ton theo ngy\r\n    function rentToken(uint256 tokenId, uint256 _startTime, uint256 _endTime) public payable {\r\n        require(ownerOf(tokenId) != msg.sender, \"You are already the owner of this token.\");\r\n        require(_startTime < _endTime, \"Start time must be before end time.\");\r\n        require(block.timestamp <= _startTime, \"Start time is in the past.\");\r\n\r\n        // Tnh s ngy thu\r\n        uint256 numberOfDays = (_endTime - _startTime) / 1 days; // S dng 1 days  tnh s ngy\r\n        require(numberOfDays > 0, \"The rental period must be at least one day.\");\r\n\r\n        // Tnh ton s tin phi tr\r\n        uint256 totalPrice = numberOfDays * leasePeriods[tokenId].pricePerDay;\r\n        require(msg.value >= totalPrice, \"Insufficient payment for rent.\");\r\n\r\n        // Lu thng tin thi gian thu\r\n        leasePeriods[tokenId] = LeasePeriod(_startTime, _endTime, leasePeriods[tokenId].pricePerDay);\r\n\r\n        // Chuyn token t ch s hu hin ti sang ngi thu\r\n        address currentOwner = ownerOf(tokenId);\r\n        _transfer(currentOwner, msg.sender, tokenId);\r\n\r\n        // Thanh ton tin thu cho ch s hu\r\n        address owner = originalOwner[tokenId];\r\n        payable(owner).transfer(msg.value);\r\n    }\r\n\r\n    // Ngi thu c th chuyn nhng quyn thu cho ngi khc trong thi gian thu\r\n    function transferDuringLeasePeriod(address to, uint256 tokenId) public {\r\n        require(ownerOf(tokenId) == msg.sender, \"Only the current tenant can transfer the token.\");\r\n        require(block.timestamp < leasePeriods[tokenId].endTime, \"Lease period has ended.\");\r\n        \r\n        // Chuyn token cho ngi nhn mi\r\n        _transfer(msg.sender, to, tokenId);\r\n    }\r\n\r\n    // t gi thu mi ngy cho ti sn\r\n    function setRentPricePerDay(uint256 tokenId, uint256 pricePerDay) public {\r\n        require(ownerOf(tokenId) == msg.sender, \"Only the owner can set the rent price.\");\r\n        leasePeriods[tokenId].pricePerDay = pricePerDay;\r\n    }\r\n\r\n    // Hm thu hi token sau khi ht hn thu\r\n    function reclaimToken(uint256 tokenId) public {\r\n        require(block.timestamp > leasePeriods[tokenId].endTime, \"Lease period has not ended yet.\");\r\n        address currentOwner = ownerOf(tokenId);\r\n        _transfer(currentOwner, originalOwner[tokenId], tokenId);  // Chuyn token v ch s hu ban u sau khi ht hn\r\n    }\r\n\r\n    // Gia hn thi gian thu\r\n    function extendLease(uint256 tokenId, uint256 newEndTime) public payable {\r\n        require(ownerOf(tokenId) == msg.sender, \"Only the current tenant can extend the lease.\");\r\n        require(newEndTime > leasePeriods[tokenId].endTime, \"New end time must be later than the current end time.\");\r\n\r\n        uint256 additionalDays = (newEndTime - leasePeriods[tokenId].endTime) / 1 days;\r\n        uint256 additionalPrice = additionalDays * leasePeriods[tokenId].pricePerDay;\r\n\r\n        require(msg.value >= additionalPrice, \"Insufficient payment for extending lease.\");\r\n\r\n        // Cp nht thi gian thu\r\n        leasePeriods[tokenId].endTime = newEndTime;\r\n\r\n        // Thanh ton tin gia hn thu cho ch s hu\r\n        address owner = ownerOf(tokenId);\r\n        payable(owner).transfer(msg.value);\r\n    }\r\n}\r\n",
  "sourcePath": "C:\\Users\\Asus\\Desktop\\real-estate-tokenization\\contracts\\TimeLimitedOwnership.sol",
  "compiler": {
    "name": "solc",
    "version": "0.8.19+commit.7dd6d404.Emscripten.clang"
  },
  "schemaVersion": "3.4.16",
  "updatedAt": "2024-09-10T20:12:05.603Z",
  "networkType": "ethereum",
  "devdoc": {
    "events": {
      "Approval(address,address,uint256)": {
        "details": "Emitted when `owner` enables `approved` to manage the `tokenId` token."
      },
      "ApprovalForAll(address,address,bool)": {
        "details": "Emitted when `owner` enables or disables (`approved`) `operator` to manage all of its assets."
      },
      "Transfer(address,address,uint256)": {
        "details": "Emitted when `tokenId` token is transferred from `from` to `to`."
      }
    },
    "kind": "dev",
    "methods": {
      "approve(address,uint256)": {
        "details": "See {IERC721-approve}."
      },
      "balanceOf(address)": {
        "details": "See {IERC721-balanceOf}."
      },
      "getApproved(uint256)": {
        "details": "See {IERC721-getApproved}."
      },
      "isApprovedForAll(address,address)": {
        "details": "See {IERC721-isApprovedForAll}."
      },
      "name()": {
        "details": "See {IERC721Metadata-name}."
      },
      "owner()": {
        "details": "Returns the address of the current owner."
      },
      "ownerOf(uint256)": {
        "details": "See {IERC721-ownerOf}."
      },
      "renounceOwnership()": {
        "details": "Leaves the contract without owner. It will not be possible to call `onlyOwner` functions. Can only be called by the current owner. NOTE: Renouncing ownership will leave the contract without an owner, thereby disabling any functionality that is only available to the owner."
      },
      "safeTransferFrom(address,address,uint256)": {
        "details": "See {IERC721-safeTransferFrom}."
      },
      "safeTransferFrom(address,address,uint256,bytes)": {
        "details": "See {IERC721-safeTransferFrom}."
      },
      "setApprovalForAll(address,bool)": {
        "details": "See {IERC721-setApprovalForAll}."
      },
      "supportsInterface(bytes4)": {
        "details": "See {IERC165-supportsInterface}."
      },
      "symbol()": {
        "details": "See {IERC721Metadata-symbol}."
      },
      "tokenByIndex(uint256)": {
        "details": "See {IERC721Enumerable-tokenByIndex}."
      },
      "tokenOfOwnerByIndex(address,uint256)": {
        "details": "See {IERC721Enumerable-tokenOfOwnerByIndex}."
      },
      "tokenURI(uint256)": {
        "details": "See {IERC721Metadata-tokenURI}."
      },
      "totalSupply()": {
        "details": "See {IERC721Enumerable-totalSupply}."
      },
      "transferFrom(address,address,uint256)": {
        "details": "See {IERC721-transferFrom}."
      },
      "transferOwnership(address)": {
        "details": "Transfers ownership of the contract to a new account (`newOwner`). Can only be called by the current owner."
      }
    },
    "version": 1
  },
  "userdoc": {
    "kind": "user",
    "methods": {},
    "version": 1
  }
}